{
    "contractName": "Marketplace",
    "abi": [
        {
            "inputs": [],
            "stateMutability": "nonpayable",
            "type": "constructor"
        },
        {
            "anonymous": false,
            "inputs": [
                {
                    "indexed": false,
                    "internalType": "address",
                    "name": "owner",
                    "type": "address"
                }
            ],
            "name": "MarketItemSold",
            "type": "event"
        },
        {
            "inputs": [],
            "name": "owner",
            "outputs": [
                {
                    "internalType": "address payable",
                    "name": "",
                    "type": "address"
                }
            ],
            "stateMutability": "view",
            "type": "function",
            "constant": true
        },
        {
            "inputs": [
                {
                    "internalType": "uint256",
                    "name": "price",
                    "type": "uint256"
                }
            ],
            "name": "createMarketSale",
            "outputs": [],
            "stateMutability": "payable",
            "type": "function",
            "payable": true
        }
    ],
    "bytecode": "0x608060405234801561001057600080fd5b50600160008190555033600160006101000a81548173ffffffffffffffffffffffffffffffffffffffff021916908373ffffffffffffffffffffffffffffffffffffffff160217905550610413806100696000396000f3fe6080604052600436106100295760003560e01c80638da5cb5b1461002e578063be9af53614610059575b600080fd5b34801561003a57600080fd5b50610043610075565b6040516100509190610294565b60405180910390f35b610073600480360381019061006e91906101ec565b61009b565b005b600160009054906101000a900473ffffffffffffffffffffffffffffffffffffffff1681565b600260005414156100e1576040517f08c379a00000000000000000000000000000000000000000000000000000000081526004016100d8906102cf565b60405180910390fd5b60026000819055506000811061012c576040517f08c379a0000000000000000000000000000000000000000000000000000000008152600401610123906102af565b60405180910390fd5b7fdd2f449ac3a251608ee8143f97f2622be4eaceecd287fda612912b0b68cc13223360405161015b9190610279565b60405180910390a1600160009054906101000a900473ffffffffffffffffffffffffffffffffffffffff1673ffffffffffffffffffffffffffffffffffffffff166108fc829081150290604051600060405180830381858888f193505050501580156101cb573d6000803e3d6000fd5b50600160008190555050565b6000813590506101e6816103c6565b92915050565b6000602082840312156101fe57600080fd5b600061020c848285016101d7565b91505092915050565b61021e81610312565b82525050565b61022d81610300565b82525050565b60006102406040836102ef565b915061024b8261034e565b604082019050919050565b6000610263601f836102ef565b915061026e8261039d565b602082019050919050565b600060208201905061028e6000830184610224565b92915050565b60006020820190506102a96000830184610215565b92915050565b600060208201905081810360008301526102c881610233565b9050919050565b600060208201905081810360008301526102e881610256565b9050919050565b600082825260208201905092915050565b600061030b82610324565b9050919050565b600061031d82610324565b9050919050565b600073ffffffffffffffffffffffffffffffffffffffff82169050919050565b6000819050919050565b7f506c65617365207375626d6974207468652061736b696e67207072696365206960008201527f6e206f7264657220746f20636f6d706c65746520746865207075726368617365602082015250565b7f5265656e7472616e637947756172643a207265656e7472616e742063616c6c00600082015250565b6103cf81610344565b81146103da57600080fd5b5056fea2646970667358221220dc150a305237b376f2b6de666d1ed4c3b0a543d2ddeac96cb97f592023c43d2a64736f6c63430008040033",
    "immutableReferences": {},
    "source": "// SPDX-License-Identifier: MIT\r\npragma solidity ^0.8.4;\r\n\r\n// import \"github.com/OpenZeppelin/openzeppelin-contracts/blob/master/contracts/utils/Counters.sol\";\r\n// import \"github.com/OpenZeppelin/openzeppelin-contracts/blob/master/contracts/token/ERC721/ERC721.sol\";\r\nimport \"@openzeppelin/contracts/security/ReentrancyGuard.sol\";\r\n\r\ncontract Marketplace is ReentrancyGuard {\r\n    // using Counters for Counters.Counter;\r\n    // Counters.Counter private _itemIds;\r\n    // Counters.Counter private _itemsSold;\r\n    \r\n     address payable public owner;\r\n     \r\n     constructor() {\r\n         owner = payable(msg.sender);\r\n     }\r\n     \r\n    //  struct MarketItem {\r\n    //      uint itemId;\r\n    //      address nftContract;\r\n    //      uint256 tokenId;\r\n    //      address payable seller;\r\n    //      address payable owner;\r\n    //      uint256 price;\r\n    //      bool sold;\r\n    //  }\r\n     \r\n    //  mapping(uint256 => MarketItem) private idToMarketItem;\r\n     \r\n    //  event MarketItemCreated (\r\n    //     uint indexed itemId,\r\n    //     address indexed nftContract,\r\n    //     uint256 indexed tokenId,\r\n    //     address seller,\r\n    //     address owner,\r\n    //     uint256 price,\r\n    //     bool sold\r\n    //  );\r\n     \r\n     event MarketItemSold (\r\n        //  uint indexed itemId,\r\n         address owner\r\n         );\r\n     \r\n    \r\n    \r\n    // function createMarketItem(\r\n    //     address nftContract,\r\n    //     uint256 tokenId,\r\n    //     uint256 price\r\n    //     ) public payable nonReentrant {\r\n    //         require(price > 0, \"Price must be greater than 0\");\r\n            \r\n    //         _itemIds.increment();\r\n    //         uint256 itemId = _itemIds.current();\r\n  \r\n    //         idToMarketItem[itemId] =  MarketItem(\r\n    //             itemId,\r\n    //             nftContract,\r\n    //             tokenId,\r\n    //             payable(msg.sender),\r\n    //             payable(address(0)),\r\n    //             price,\r\n    //             false\r\n    //         );\r\n            \r\n    //         IERC721(nftContract).transferFrom(msg.sender, address(this), tokenId);\r\n                \r\n    //         emit MarketItemCreated(\r\n    //             itemId,\r\n    //             nftContract,\r\n    //             tokenId,\r\n    //             msg.sender,\r\n    //             address(0),\r\n    //             price,\r\n    //             false\r\n    //         );\r\n    // }\r\n        \r\n    function createMarketSale(uint price) public payable nonReentrant {\r\n            // uint price = _price;\r\n            // uint tokenId = idToMarketItem[itemId].tokenId;\r\n            // bool sold = idToMarketItem[itemId].sold;\r\n            require(price < 0, \"Please submit the asking price in order to complete the purchase\");\r\n            // require(sold != true, \"This Sale has alredy finnished\");\r\n            emit MarketItemSold(\r\n                // itemId,\r\n                msg.sender\r\n                );\r\n\r\n            owner.transfer(price);\r\n            // IERC721(nftContract).transferFrom(address(this), msg.sender, tokenId);\r\n            // idToMarketItem[itemId].owner = payable(msg.sender);\r\n            // _itemsSold.increment();\r\n            // idToMarketItem[itemId].sold = true;\r\n        }\r\n        \r\n    // function fetchMarketItems() public view returns (MarketItem[] memory) {\r\n    //     uint itemCount = _itemIds.current();\r\n    //     uint unsoldItemCount = _itemIds.current() - _itemsSold.current();\r\n    //     uint currentIndex = 0;\r\n\r\n    //     MarketItem[] memory items = new MarketItem[](unsoldItemCount);\r\n    //     for (uint i = 0; i < itemCount; i++) {\r\n    //         if (idToMarketItem[i + 1].owner == address(0)) {\r\n    //             uint currentId = i + 1;\r\n    //             MarketItem storage currentItem = idToMarketItem[currentId];\r\n    //             items[currentIndex] = currentItem;\r\n    //             currentIndex += 1;\r\n    //         }\r\n    //     }\r\n    //     return items;\r\n    // }\r\n      \r\n}\r\n\r\n/// Thanks for inspiration: https://github.com/dabit3/polygon-ethereum-nextjs-marketplace/\r\n",
    "sourcePath": "C:\\Users\\OWNER\\Documents\\Smart Contracts Related\\MORALIS\\Apeware\\Truffle\\contracts\\Marketplace.sol",
    "compiler": {
        "name": "solc",
        "version": "0.8.4+commit.c7e474f2.Emscripten.clang"
    },
    "schemaVersion": "3.4.7",
    "updatedAt": "2022-04-21T03:59:35.128Z",
    "networkType": "ethereum",
    "devdoc": {
        "kind": "dev",
        "methods": {},
        "version": 1
    },
    "userdoc": {
        "kind": "user",
        "methods": {},
        "version": 1
    }
}